:060000000A128A110C280F
:10000800FE00030EF1000A08F2000A128A15DC2A23
:100018000A128A110F288313E830FD000730FE000A
:10002800EF30FF00D73084000A168A115A260A12C8
:100038008A11BE308400D7300A168A11DD250A12CB
:100048008A11EF01F801F901FA0183010A128A11F4
:100058002D280A128A1591240A128A11831603136D
:100068004A08BA003A0883120313E000D6300A128D
:100078008A1521220A128A1101300A168A116B2761
:100088000A128A1183160313BA003A08831203135B
:10009800EF00EF09B83083160313BC000B30BD0026
:1000A800FF30BC070318BD0AFF30BD073C0A031D1B
:1000B80061283D0A031D612862285428392A4A0804
:1000C8000A128A1519250A128A115B2A30308312FE
:1000D8000313A0008830A100813083160313BA00EF
:1000E8003A0883120313A2000A168A11CD270A12AE
:1000F8008A11C03083160313BA003A08F7004B0878
:10010800303E0A168A117D260A128A114E30831251
:100118000313A0008830A100C23083160313BA006D
:100128003A0883120313A2000A168A11CD270A126D
:100138008A115B2A113083120313A0008830A100B2
:10014800803083160313BA003A0883120313A200FF
:100158000A168A11CD270A128A11E830831203136E
:10016800A0008830A100C03083160313BA003A08F3
:1001780083120313A2000A168A11CD270A128A11C4
:100188008316031345080319CA28CB28EE28450807
:10019800BA003A0883120313A400D3300A128A154E
:1001A80083210A128A11831603135308BA003A08E6
:1001B800CC005408BA003A08CD006D30BA003A08AD
:1001C800CF006930BA003A08D0006E30BA003A0859
:1001D800D10010294408BA003A0883120313A40076
:1001E800D3300A128A1583210A128A11831603133F
:1001F8005308BA003A08CC005408BA003A08CD00AF
:100208007330BA003A08CF006530BA003A08D00017
:100218006330BA003A08D100CC3083120313A0002F
:100228000030A100C83083160313BA003A088312BD
:100238000313A2000A168A11CD270A128A115B2A13
:100248004308031D282929295029A23083120313A2
:10025800A0008830A100803083160313BA003A0842
:1002680083120313A2000A168A11CD270A128A11D3
:100278005D3083120313A0008830A100C0308316BC
:100288000313BA003A0883120313A2000A168A114C
:10029800CD270A128A115B2A4303031D54295529C5
:1002A8007C29953083120313A0008830A100803088
:1002B80083160313BA003A0883120313A2000A161E
:1002C8008A11CD270A128A116B3083120313A000FA
:1002D8008830A100C03083160313BA003A0883128D
:1002E8000313A2000A168A11CD270A128A115B2A63
:1002F80002304306031D81298229A929BC308312B3
:100308000313A0008830A100803083160313BA00BD
:100318003A0883120313A2000A168A11CD270A127B
:100328008A11213083120313A0008830A100C03045
:1003380083160313BA003A0883120313A2000A169D
:100348008A11CD270A128A115B2A5B2A0030831290
:100358000313A0008830A100803083160313BA006D
:100368003A0883120313A2000A168A11CD270A122B
:100378008A11D5300A128A15BA250A128A115B2AFF
:10038800AF3083120313A0008830A1008130831698
:100398000313BA003A0883120313A2000A168A113B
:1003A800CD270A128A11C93083120313A00088309E
:1003B800A100C13083160313BA003A08831203134D
:1003C800A2000A168A11CD270A128A115B2A363032
:1003D80083120313A0008830A1008430831603130E
:1003E800BA003A0883120313A2000A168A11CD270D
:1003F8000A128A11F03083120313A0008830A1007A
:10040800C43083160313BA003A0883120313A200F8
:100418000A168A11CD270A128A115B2AD63083124E
:100428000313A0008830A100833083160313BA0099
:100438003A0883120313A2000A168A11CD270A125A
:100448008A11873083120313A0008830A100C130BD
:1004580083160313BA003A0883120313A2000A167C
:100468008A11CD270A128A115B2A7A08BA00BB01C1
:100478003B08003A0319412A5B2A3A08003A031953
:100488006328023A03196A28013A03199E28073A91
:1004980003192429013A0319AA29033A0319C4297B
:1004A8000F3A0319EB29033A0319122A5B2A83121C
:1004B80003136F0818390319622A632A522B7A0822
:1004C8000319672A682A3F2B7A03031D6C2A6D2AB1
:1004D800522B3F2B0A168A11D5250A128A11831628
:1004E80003134B080319792A7A2AA62AC801F901A5
:1004F800FA01FA0A05300A168A1169260A128A11BF
:100508003F3083120313A0008830A1008130831686
:100518000313BA003A0883120313A2000A168A11B9
:10052800CD270A128A11F301C6300A128A15FA2059
:100538000A128A11F3010F300A128A15FA200A12D8
:100548008A111C2D0330BA003A08FA0003300A1643
:100558008A1169260A128A111C2D831203136F0847
:1005680083160313BA0003300310BA0CFF3E031DB1
:10057800B82A3A080339BB003B08C90049080339BF
:100588000319C72AC82AF82A05300A168A116926C3
:100598000A128A11831603134908BA003A08F300AD
:1005A8007908023E0A168A1192260A128A118316BF
:1005B8000313BB003B08C8070130BA003A08F90723
:1005C800F83083120313A0008830A1007908C53ED3
:1005D80083160313BA003A0883120313A2000A16FB
:1005E8008A11CD270A128A1104307906031DFD2AC3
:1005F800FE2A1C2DF3010C300A128A15FA200A1261
:100608008A110A168A11D5250A128A11831603132C
:10061800480847060319112B122B312B0130CB0246
:100628000230BA003A08FA0003300A168A1169261D
:100638000A128A11F3010F300A168A1133260A1298
:100648008A11831603134B08031D2B2B2C2B3C2BD1
:100658000330BA003A08FA003C2BC501C401033044
:10066800BA003A08CB00C3010430BA003A08FA00CD
:10067800F901C8011C2D7A0883160313BA00BB01BF
:100688003B08003A0319492B1C2D3A08003A031974
:100698006E2A013A0319B12A1C2D1C2D7A03031D59
:1006A800562B572B5D2BEF1E5A2B5B2B5D2BF8011E
:1006B8001C2D04307A06031D622B632BE32B6F1E5F
:1006C800662B672B742B023083160313430203181F
:1006D8006E2B6F2B1C2D0130BA003A08C3071C2D56
:1006E800EF1D772B782B822B8316031343080319EE
:1006F8007E2B7F2B1C2D0130C3021C2DEF1E852B5A
:10070800862B512B0A168A11D5250A128A11CE2B4F
:10071800D5010530BA003A08FA001C2D0630BA0097
:100728003A08FA00D6300A168A11F7260A128A11F0
:1007380003300A168A1169260A128A111C2DC8016B
:10074800C601F9013F3083120313A0008830A100CD
:10075800813083160313BA003A0883120313A200E8
:100768000A168A11CD270A128A11F301C6300A1215
:100778008A15FA200A128A11F3010F300A128A1513
:10078800FA200A128A11073083160313BA003A08AE
:10079800FA001C2D831603134308BA00BB013B085B
:1007A800003A0319D82B512B3A08003A03198C2B1D
:1007B800013A0319922B033A0319A32B512B053045
:1007C8007A06031DE82BE92B132CEF1DEC2BED2BE0
:1007D800FA2B09308316031355020318F42BF52B53
:1007E8001C2D0130BA003A08D5071C2D6F1EFD2BB1
:1007F800FE2B082C8316031355080319042C052C0B
:10080800512B0130D5021C2DEF1E0B2C0C2C512B1B
:100818000A168A11D5250A128A11FA011C2D6F08A9
:1008280018390319182C192C972C07307A06031D30
:100838001E2C1F2C972C6F0883160313BA00033045
:100848000310BA0CFF3E031D242C3A080339BB00E1
:100858003B08C900490803390319332C342C5C2C94
:100868004908BA003A08F3007908023E0A168A11C4
:1008780092260A128A1183160313BB003B08C80785
:100888000130BA003A08F907F83083120313A000C0
:100898008830A1007908C53E83160313BA003A08C8
:1008A80083120313A2000A168A11CD270A128A118D
:1008B80004307906031D612C622C1C2DF9010A16DF
:1008C8008A11D5250A128A11F3010C300A128A15E9
:1008D800FA200A128A11793083120313A000883093
:1008E800A100813083160313BA003A088312031358
:1008F800A2000A168A11CD270A128A11F301C630FE
:100908000A128A15FA200A128A11F3010F300A1204
:100918008A15FA200A128A11083083160313BA00BE
:100928003A08FA001C2D6F08183903199C2C9D2CC5
:100938001C2D08307A06031DA22CA32C1C2D6F0831
:1009480083160313BA0003300310BA0CFF3E031DCD
:10095800A82C3A080339BB003B08C90049080339E9
:100968000319B72CB82CE02C4908BA003A08F30050
:100978007908023E0A168A1192260A128A118316EB
:100988000313BB003B08C6070130BA003A08F90751
:10099800F83083120313A0008830A1007908C53EFF
:1009A80083160313BA003A0883120313A2000A1627
:1009B8008A11CD270A128A1104307906031DE52C05
:1009C800E62C512BF3010C300A128A15FA200A1270
:1009D8008A110A168A11D5250A128A118316031359
:1009E80048084606031DF92CFA2C0F2D4808BA00B2
:1009F8003A08F70000300A168A119A270A128A1153
:100A0800831603134808BA003A08C7000930BA0029
:100A18003A08FA00132D0A30BA003A08FA00C80159
:100A2800C601F90103300A168A1169260A128A11C9
:100A38007A03031D202D212D342D7808031D252D23
:100A4800262D342DF3010C300A128A15FA200A12C9
:100A58008A11FA010A168A11D5250A128A11A22DBD
:100A680002307A06031D392D3A2D722D7808031DA0
:100A78003E2D3F2D722D83160313C801F9010A1666
:100A88008A11D5250A128A113F3083120313A00058
:100A98008830A100813083160313BA003A08831204
:100AA8000313A2000A168A11CD270A128A11F3012C
:100AB800C6300A128A15FA200A128A11F3010F3079
:100AC8000A128A15FA200A128A11FA01FA0A05305E
:100AD8000A168A1169260A128A11A22D03307A068B
:100AE800031D772D782D7E2D7808031D7C2D7D2DF7
:100AF8007E2D2D2D06307A06031D832D842D8A2DFB
:100B08007808031D882D892D8A2D2D2D09307A0608
:100B1800031D8F2D902D962D7808031D942D952D4E
:100B2800962D2D2D0A307A06031D9B2D9C2DA22D66
:100B38007808031DA02DA12DA22D2D2D033083167D
:100B480003134B060319A92DAA2DB82D4408031D1C
:100B5800AE2DAF2DB82D4508031DB32DB42DB82DDE
:100B68000330BA003A08CB0083120313EF1CBD2DE3
:100B7800BE2DD82D013083160313BA003A08CA07D0
:100B880006304A02031CC92DCA2DCB2DCA014A08BA
:100B9800BA003A0883120313E000D6300A128A1505
:100BA80021220A128A1140286F1DDB2DDC2DF72D1A
:100BB800013083160313CA0206304A02031CE52DCE
:100BC800E62DEA2D0530BA003A08CA004A08BA00EC
:100BD8003A0883120313E000D6300A128A1521223C
:100BE8000A128A1140286F1CFA2DFB2D0E2E063092
:100BF80083160313BA003A08CA004A08BA003A082A
:100C080083120313E000D6300A128A1521220A1231
:100C18008A11402840280A128A110C2883120313CB
:100C280035088039B6003608BF003508B6003607E3
:100C3800B7003708C600B41F222E232E242E4614D0
:100C480046080319282E292E392E460A031D2D2E53
:100C58002E2E362E0030B5000030B4000030B30020
:100C68000030B200B417B501412E0030B500003095
:100C7800B4000030B3000030B20031088039B6004B
:100C88003608BF063108B6003607B7003708C70070
:100C9800B01F4F2E502E512E471447080319552EBA
:100CA800562E662E470A031D5A2E5B2E632E0030E1
:100CB800B1000030B0000030AF000030AE00B01717
:100CC800B1016E2E0030B1000030B0000030AF002E
:100CD8000030AE00310830042F042E04031D752E99
:100CE800762E8F2E0030B5000030B4000030B300EF
:100CF8000030B2008030B4047F30B5043F08B6003D
:100D08003608B5043508B1003408B0003308AF0020
:100D18003208AE00EE2F4608031D932E942E9D2E0A
:100D28000030B1000030B0000030AF000030AE003D
:100D3800EE2F4608B600B7013708B9004708360253
:100D4800B800031CB90338087F3EC00039080318EF
:100D5800013E003EC1003508BE003408BD0033081E
:100D6800BC003208BB000030B5000030B4000030D1
:100D7800B3000030B2000030C5000030C4000030BD
:100D8800C3000030C200C701132F47080319CD2E36
:100D9800CE2EEE2E0130B6000310BB0DBC0DBD0DDE
:100DA800BE0DB60BD02E0130B6000310B20DB30D38
:100DB800B40DB50DB60BD92EC51FE32EE42EE52EC6
:100DC80032140130B6000310C20DC30DC40DC50D99
:100DD800B60BE72E31083E02031DFC2E30083D02FB
:100DE800031DFC2E2F083C02031DFC2E2E083B027F
:100DF800031CFF2E002F0F2F45172E08BB022F08AC
:100E0800031C2F0FBC023008031C300FBD02310831
:100E1800031C310FBE020130B6003608C7071A306E
:100E28004702031C182F192FC92E3E083D043C0405
:100E38003B040319202F212F402F4214402F01304B
:100E4800B6000310B20DB30DB40DB50DB60B252FBA
:100E5800C51F2F2F302F312F32140130B600031049
:100E6800C20DC30DC40DC50DB60B332FFF30C0071F
:100E78000318C10AFF30C107B41F432F442F232F83
:100E8800C701C51F482F492F652FFF304205B600FF
:100E9800FF304305B700FF304405B8007F304505F3
:100EA800B900390838043704360403195C2F5D2F5C
:100EB800602FC701C70A652F321C632F642F652F67
:100EC8005D2F47080319692F6A2F9B2F0130B2073E
:100ED800003003180130B307003003180130B4079D
:100EE800003003180130B507351C7B2F7C2F9B2F52
:100EF8003208B6003308B7003408B8003508B9001E
:100F08000130BA00390DB90CB80CB70CB60CBA0BD5
:100F1800862F3908B5003808B4003708B3003608FA
:100F2800B2000130C0070318C10A0030C1074108E8
:100F3800803AFF0080307F02031DA42FFF3040025B
:100F4800031CA72FA82FB62FFF3083120313C0004E
:100F58000030C1000030B5000030B4000030B300EC
:100F68000030B200831203134108803AFF0080303A
:100F78007F02031DC12F013040020318C42FC52F63
:100F8800D22F83120313C001C1010030B500003015
:100F9800B4000030B3000030B200BF018312031365
:100FA8004008B6003608C600461CDB2FDC2FDE2FB3
:100FB800B417E22F7F30B6003608B4054608B600ED
:100FC8000310360CB7003708B5003F08B6003608DE
:100FD800B504862E080047344E344734523447341B
:100FE8003134473432344734333447343434433477
:100FF80020344F344E3400342334203454344934AC
:101008004D344534203420342034203420344534C1
:101018002034203453345034003459346F34753408
:101028002034613472346534203462346C346F3463
:1010380063346B346534643400342A3420344334E4
:10104800683461346E34673465342034503477340E
:101058006434203420340034573452344F344E34FE
:1010680047342034503441345334533457344F3494
:1010780052344434003445344E34543445345234B4
:101088002034503441345334533457344F34523469
:101098004434003441347434743465346D347034F9
:1010A80074342034723465346D34613469346E3488
:1010B80000342034203443346C3465346134723461
:1010C80020344C346F3467347334203400342A3479
:1010D800203443346C3465346134723420344C34F5
:1010E8006F346734733420340034523445342D342B
:1010F80045344E3454344534523420345034533407
:1011080057344434003444344F34453453344E3423
:101118002734543420344D3441345434433448341F
:10112800003420342034563469346534773420341C
:101138004C346F3467347334203400342A34203408
:10114800563469346534773420344C346F3467341A
:101158007334203400344C346F346734733420349F
:1011680063346C3465346134723465346434003407
:101178002034203443346C34653461347234203480
:101188004C346F34673473340034733475346334D7
:101198006334653473347334663475346C346C3446
:1011A80079340034503441345334533457344F3441
:1011B80052344434533400344E346F3420346C3455
:1011C8006F34673473340034773461346934743479
:1011D8002E342E342E3400344334483441344E34C3
:1011E80047344534443400342A340034F600731844
:1011F800FE280229831203130915052983120313F4
:101208000911760888008914A630F400F40B0A291D
:1012180000008312031389101B30F5009E30F40080
:10122800F40B1429F50B142900000800831203138A
:1012380094152D08F4002E08F5002F08F600300844
:10124800F70002300310F40DF50DF60DF70DFF3E13
:10125800031D26297708A3007608A2007508A100B7
:101268007408A0000130A7003130A6002D30A50079
:101278000030A4000A128A1544230A128A15831220
:1012880003132008FF3E83160313930083120313EE
:101298009416080083120313A0000A168A11E52584
:1012A8000A128A15D0300A168A1102260A128A15DD
:1012B8008312031320080A168A1102260A128A15B5
:1012C8000A168A11F7250A128A15D1300A168A11C8
:1012D80002260A128A1500300A168A1119270A12DC
:1012E8008A15F600760883120313A1000A168A11DC
:1012F800EE250A128A1583120313210808008312A7
:101308000313AA000A30F3000030F4002408A500F3
:10131800A6012508F5002608F6000A128A15AC234E
:101328000A128A157308303E83120313A700270890
:10133800A8000A30F3000030F4002408A500A60134
:101348002508F5002608F6000A128A15C6210A1291
:101358008A157308303E83120313A7002708A900D3
:101368002808A5002A088400250883138000013076
:10137800A5002508AA072908A5002A088400250829
:101388008000080083120313A101F61FCC29CD2980
:10139800D429F509F609F50A0319F60AA101A10AE3
:1013A800F41FD729D829DD29F309F409F30A031909
:1013B800F40A730874040319E229E329122AA00124
:1013C800A00AF12901300310F30DF40DFF3E031DAF
:1013D800E7290130F7007708A007F41FF429F52959
:1013E800E62974087602031DFB2973087502031C9D
:1013F800FE29FF29052A7308F5027408031CF60361
:10140800F60201300310F40CF30CFF3E031D062A0C
:101418000130A002031D112A122AF52921080319F7
:10142800162A172A1C2AF509F609F50A0319F60AD5
:101438007608F4007508F300080083120313EE0021
:101448006008E1006108D30063300A128A1530276A
:101458000A128A15831203136E0884000A30831354
:101468000006031D382A392A3C2A6E0884008001A8
:101478006E0884000008E1006108F70001300A16D0
:101488008A119A270A128A1583120313ED016D082F
:10149800633E840083130008E1006108F7000A3006
:1014A800E2006208F3006E08840000080A168A1138
:1014B80092260A128A15831203136D07023E0A1632
:1014C8008A119A270A128A15013083120313E10040
:1014D8006108ED070A306D02031C732A742A4B2A2F
:1014E8000130E1006E08840061088313800708005A
:1014F800C33083120313A100CC30A000A00B822AB2
:10150800A10B822A0000F30133300A128A15FA204F
:101518000A128A151B3083120313A1009D30A00004
:10152800A00B942AA10B942A992AF30133300A12AA
:101538008A15FA200A128A15A53083120313A0000F
:10154800A00BA42AA72AF30133300A128A15FA201D
:101558000A128A15AF2AB02A0000F30138300A129D
:101568008A15FA200A128A15A53083120313A000DF
:10157800A00BBC2ABF2AF30101300A128A15FA20EF
:101588000A128A15A53083120313A000A00BCA2AD9
:10159800CD2AF3010C300A128A15FA200A128A158C
:1015A800A53083120313A000A00BD82ADB2A080059
:1015B80083308312031381000B1DE32AE42A3D2B99
:1015C8000B11831603134408031DEB2AEC2AF12A96
:1015D80045080319F02AF12A152B0130C007031812
:1015E800C10A0030C1077B304006023003194106AA
:1015F800031DFF2A002B152BC001C1014408031D40
:10160800062B072B132B450803190B2B0C2B152B1B
:101618000130C5023C30F0007008C400152B0130C1
:10162800C40278080319192B1A2B2D2B0130BE0779
:101638000318BF0A0030BF077B303E06023003198B
:101648003F06031D282B292B2D2BBE01BF0101307E
:10165800F8027808031D312B322B3D2B4408031D5B
:10166800362B372B3D2B4508031D3B2B3C2B3D2BA5
:101678008B1272088A00710E8300FE0E7E0E09001E
:10168800003083120313AB000030AA000030A90019
:101698000030A80023082204210420040319552B34
:1016A800562BA32BAC01AC0A662B0130F3000310B8
:1016B800A00DA10DA20DA30DF30B5B2B0130F300C0
:1016C8007308AC07A31F692B6A2B592B0130F30051
:1016D8000310A80DA90DAA0DAB0DF30B6C2B230855
:1016E8002702031D812B22082602031D812B2108B6
:1016F8002502031D812B20082402031C842B852B23
:10170800942B2008A4022108031C210FA5022208FB
:10171800031C220FA6022308031C230FA702281468
:1017280001300310A30CA20CA10CA00CFF3E031D5A
:10173800952B0130AC02031DA22BA32B6A2B2B087F
:10174800A3002A08A2002908A1002808A000080070
:1017580083120313A101F41FB22BB32BBA2BF30985
:10176800F409F30A0319F40AA101A10AF61FBD2B13
:10177800BE2BC72BF509F609F50A0319F60A01303D
:10178800F7007708A106A201A301730874040319DE
:10179800CE2BCF2B062CA001A00ADD2B0130031085
:1017A800F30DF40DFF3E031DD32B0130F70077082E
:1017B800A007F41FE02BE12BD22B01300310A20D60
:1017C800A30DFF3E031DE22B74087602031DEE2BCA
:1017D80073087502031CF12BF22BF92B7308F50221
:1017E8007408031CF603F602221401300310F40CEB
:1017F800F30CFF3E031DFA2B0130A002031D052C3C
:10180800062CE12B210803190A2C0B2C102CA209F9
:10181800A309A20A0319A30A2308F4002208F30063
:1018280008000310831203134A0D4B0DCC004C081B
:10183800D2005208031D212C222C2B2C0030CB0067
:101848000030CA000030C9000030C800902C480899
:10185800CC004908CD004A08CE004B08CF001F3005
:101868000310CF0CCE0CCD0CCC0CFF3E031D342C3A
:101878004C08D0005008D100CA17FF30C805FF3007
:10188800C905FF30CA050030CB059630D202D21FF9
:101898004E2C4F2C692C5208803A973E0318552C31
:1018A800562C572C222C01300310CB0CCA0CC90C17
:1018B800C80CFF3E031D582C0130CC004C08D20741
:1018C800031D672C682C572C802C20305202031CD7
:1018D8006E2C6F2C7B2C222C0130CC000310C80DF1
:1018E800C90DCA0DCB0DCC0B722C0130D202520897
:1018F800031D7F2C802C702C51080319842C852CF7
:10190800902CC809C909CA09CB09C80A0319C90A08
:101918000319CA0A0319CB0A0800003083120313FB
:10192800B0000130AF008630AE00A030AD000A1222
:101938008A151A210A128A150A168A1125260A12E8
:101948008A150A168A11BE260A128A150A168A11DB
:10195800C8250A128A150A168A110D260A128A152E
:101968000A168A11CE250A128A158B1783120313B9
:10197800EF01FA010730B100310883160313CA00DA
:10198800033083120313B100310883160313CB000D
:10199800BE01BF01F801C001C101C501C401C801F0
:1019A800C601F901C901203083120313B1003108BF
:1019B80083160313CE00D201C301D50100300A16E5
:1019C8008A11A7260A128A1583120313B100310857
:1019D80083160313C700470A031DF32CF42CFC2CB1
:1019E8000E3083120313B100310883160313C700A6
:1019F80001300A168A11A7260A128A1583120313C0
:101A0800B100310883160313D600560A031D0D2DA5
:101A18000E2D102DD601182D013083120313B1009D
:101A2800310883160313D607080083160313A00092
:101A3800200883120313E0006008D300B0300A12B4
:101A48008A1530270A128A15831603133008831261
:101A58000313E000600883160313A1003108831202
:101A68000313E000600883160313A2003A308312C0
:101A78000313E000600883160313A30032088312DF
:101A88000313E000600883160313A40033088312CD
:101A98000313E000600883160313A5003A3083128D
:101AA8000313E000600883160313A60034088312AA
:101AB8000313E000600883160313A7003508831298
:101AC8000313E000600883160313A8002030831274
:101AD8000313E000600883160313A9003608831275
:101AE8000313E000600883160313AA003708831263
:101AF8000313E000600883160313AB002030831241
:101B08000313E000600883160313AC00380883123F
:101B18000313E000600883160313AD00390883122D
:101B28000313E000600883160313AE00AF01023010
:101B380083120313A0008830A1008230E0006008FF
:101B4800A2000A168A11CD270A128A15A13083121B
:101B58000313A0000030A100C230E0006008A2001A
:101B68000A168A11CD270A128A1508008312031350
:101B7800C2002030A3002308B0003A30A300230895
:101B8800B3003A30A3002308B6002030A30023088E
:101B9800B9002030A3002308BC000A30A3002308A2
:101BA800F30042088400831300080A168A1192265B
:101BB8000A128A15023E83120313A4002408C000E7
:101BC80040080A168A11A7260A128A1583120313D7
:101BD800A3002308BF003F0A031DF32DF42D0A2E8E
:101BE8004208840083130008031DFB2DFC2D0A2ED8
:101BF800E030A0008830A100C230A3002308A20072
:101C08000A168A11CD270A128A15732E3F0A031D58
:101C18000E2E0F2E1C2E4208840083130008031971
:101C2800162E172E1C2E4208840001308002732EB7
:101C3800C101410840070A168A11A7260A128A1507
:101C480083120313A3004108253E8400230883134D
:101C580080000130A3002308C1070A304102031C99
:101C6800362E372E1D2E420884000008303EA30071
:101C78002308AF002508A3002308B1002608A30005
:101C88002308B2002708A3002308B4002808A300EB
:101C98002308B5002908A3002308B7002A08A300D1
:101CA8002308B8002B08A3002308BA002C08A300B7
:101CB8002308BB002D08A3002308BD002E08A3009D
:101CC8002308BE002F30A0000030A100C030A300C0
:101CD8002308A2000A168A11CD270A128A150800BD
:101CE80083120313A800280803197B2E7C2E902E3C
:101CF800A31F7F2E802E902E2009AA002109AB0059
:101D08002209AC002309AD00AA0A0319AB0A03197A
:101D1800AC0A0319AD0A982E2308AD002208AC00BE
:101D28002108AB002008AA0023082204210420046B
:101D3800031D9F2EA02EA92E0030A3000030A20064
:101D48000030A1000030A0002F2F9630A4002408F6
:101D5800A900BB2E0130A4002408A90701300310F4
:101D6800AD0CAC0CAB0CAA0CFF3E031DB32EFE3021
:101D78002D05031DC02EC12EAE2EDD2E0130A40070
:101D88002408A9070130AA07003003180130AB075F
:101D9800003003180130AC07003003180130AD07DC
:101DA80001300310AD0CAC0CAB0CAA0CFF3E031DAC
:101DB800D52EFF302D05031DE22EE32EC22EEF2E69
:101DC8000130A9020130A4000310AA0DAB0DAC0D1F
:101DD800AD0DA40BE82EAC1BF22EF32EF92E02301B
:101DE80029020318F82EF92EE42E2918FC2EFD2EB0
:101DF800052FFF30AA05FF30AB057F30AC05FF305B
:101E0800AD050310A90C2908A400A501A601A70186
:101E180018300310A40DA50DA60DA70DFF3E031D38
:101E28000D2F2408AA042508AB042608AC042708AB
:101E3800AD0428080319212F222F272FA31F252F90
:101E4800262F272FAD172D08A3002C08A2002B083A
:101E5800A1002A08A000080083120313DF005C30E9
:101E68000A168A113C270A128A150A168A1144266C
:101E78000A128A15730883120313D4007408D50054
:101E8800D601D7015708A3005608A2005508A1009B
:101E98005408A00000300A128A1574260A128A15FE
:101EA800831203132308B5002208B4002108B300E5
:101EB8002008B2004130B1002430B000CC30AF006F
:101EC800CD30AE000A128A1112260A128A15831220
:101ED80003133108CB003008CA002F08C9002E08A8
:101EE800C8000A128A1515240A128A1583120313C8
:101EF8004808D8005808D9005908D4005408A40044
:101F08005A300A128A1583210A128A15831203137A
:101F18005C08D40004300310D40CFF3E031D8F2F3F
:101F280054080339303ED5005F08840055088313F0
:101F380080005C080F39303ED4005F0A84005408E2
:101F480080005D08D40004300310D40CFF3E031D4C
:101F5800A82F54080739303ED5005F08023E840098
:101F6800550880005D080F39303ED4005F08033EF5
:101F78008400540880005E08D40004300310D40C98
:101F8800FF3E031DC22F54080739303ED5005F08B5
:101F9800043E8400550880005E080F39303ED400A6
:101FA8005F08053E8400540880005308D400540795
:101FB800D73E84000008D5005F08063E8400550817
:101FC80080005308D4005407D83E84000008D50088
:101FD8005F08073E8400550880005A08D4005F084F
:101FE800083E8400540880005B08D4005F08093E5E
:101FF8008400540880000800FF1B0A2883137F18F8
:1020080083170008840A0319FF0A08007F087F392C
:0C2018008A000408840A0319FF0A8200F1
:102B90008316031306083F388600080083160313C4
:102BA0009F17831203131F140800F30101300A1248
:102BB0008A15FA200A168A11080064008001840A26
:102BC0000406031900340406DE2D0A168A1118269D
:102BD0000A168A1183160313111408000A168A11A3
:102BE00018260A168A1183160313111508000A16EF
:102BF0008A11EE250A168A110A168A11E5250A1687
:102C00008A110800F3000A168A1118260A168A117A
:102C100073088312031393000800831603138801BB
:102C2000091189100A128A157C220A168A110800D5
:102C30008316031314191D2E1E2E182E11081F396A
:102C4000031D232E242E182E080083160313811231
:102C500081110530F300730881048330831203135C
:102C600081008B120800F5007508F40074088316C3
:102C70000313C5007308F4007408C4008330831282
:102C8000031381008B160800831203131F151F19ED
:102C90004A2E4B2E472E1E08F600831603131E08DD
:102CA000F5007608F4007508F30008007E088A0035
:102CB0007F0882000A168A1156260A168A11800099
:102CC000840A04087D0603190034FF0A0319FE0A6A
:102CD0005A2EF40083160313BE01BF017408F300DB
:102CE0007308F800831203130108031D782E792E50
:102CF0007B2E833081008B16080083120313A00003
:102D0000F30177080A128A15FA200A168A11F301CC
:102D1000F30A8312031320080A128A15FA200A16EE
:102D20008A110800F600F501761C972E982E9C2E2D
:102D30007308F4007408F5070310F30D0310F60C84
:102D40007608031DA42EA52E942E75080800F40005
:102D50006400831603178C18AE2EAF2EA82E7408AD
:102D6000831203178D003F30F30073088316031797
:102D70008C050C14831203170C08080000300A128B
:102D80008A154E210A168A11F70077088312031359
:102D9000A20022087F39F7007708A2002208F70076
:102DA0007708F40000300A168A11D9260A168A110B
:102DB0000800F5000A168A11E5250A168A11D03096
:102DC0000A168A1102260A168A1175080A168A112D
:102DD00002260A168A1174080A168A1102260A1691
:102DE0008A110A168A11EE250A168A110800831222
:102DF0000313A3000230A2002208A400FF30A200A7
:102E00002208F70024080A168A119A270A168A113E
:102E1000013083120313A2002208A40766302402A3
:102E2000031C132F142FFE2E23088400831380010C
:102E30000800F4000A168A1118260A168A11831649
:102E4000031391150A168A1118260A168A1183127D
:102E500003131308F3007308F5007403031D312FE7
:102E6000322F362F831603139116392F831603132F
:102E7000911211167508080083120313A200023084
:102E80000A128A154E210A168A11F70083120313BB
:102E90002208840077088313800001300A128A1503
:102EA0004E210A168A11F70083120313220A8400A6
:102EB00077088313800000300A128A154E210A1603
:102EC0008A11F700831203132208023E8400770858
:102ED000831380000800F4007408031D702F712F05
:102EE000762F8312031306083F39992F3F30831240
:102EF00003130605F3003F3073060319802F812F5B
:102F00008A2F8316031342080319872F882F8A2FCD
:102F1000C201712F3F3083120605F3003F30730664
:102F2000031D932F942F982F83160313C201C20AF7
:102F30003F30080083120313A100831603178C1877
:102F4000A22FA32F9D2F831203132108831203178F
:102F50008D0077088C003F3083120313A0002008F7
:102F6000831603178C058312031303108B1FB92FCD
:102F7000BA2FBB2F03148B13831603170C15553070
:102F80008D00AA308D008C140C1183120313031CC6
:102F9000CA2FCB2FCC2F8B170800F30183120313FA
:102FA00022080A128A15FA200A168A11EF2FF30155
:102FB000F30A2108FF00200884000A168A11002065
:102FC0000A168A110A128A15FA200A168A11013085
:102FD00083120313A0070318A10A0030A10783126C
:102FE00003132108FF00200884000A168A1100201C
:102FF0000A168A11003A031DFE2FFF2FD72F080053
:08400000FF3FFF3FFF3FFF3FC0
:02400E00FB3F76
:00000001FF
